{
  "contractName": "Crowdfunding",
  "abi": [
    {
      "anonymous": false,
      "inputs": [
        {
          "indexed": false,
          "internalType": "uint256",
          "name": "campaignID",
          "type": "uint256"
        }
      ],
      "name": "CampaignCreated",
      "type": "event"
    },
    {
      "anonymous": false,
      "inputs": [
        {
          "indexed": true,
          "internalType": "address",
          "name": "funder",
          "type": "address"
        }
      ],
      "name": "Contribution",
      "type": "event"
    },
    {
      "anonymous": false,
      "inputs": [
        {
          "indexed": false,
          "internalType": "uint256",
          "name": "campaignID",
          "type": "uint256"
        }
      ],
      "name": "GoalReached",
      "type": "event"
    },
    {
      "constant": false,
      "inputs": [
        {
          "internalType": "address payable",
          "name": "beneficiary",
          "type": "address"
        },
        {
          "internalType": "uint256",
          "name": "goal",
          "type": "uint256"
        }
      ],
      "name": "newCampaign",
      "outputs": [],
      "payable": false,
      "stateMutability": "nonpayable",
      "type": "function"
    },
    {
      "constant": false,
      "inputs": [
        {
          "internalType": "uint256",
          "name": "campaignID",
          "type": "uint256"
        }
      ],
      "name": "contribute",
      "outputs": [],
      "payable": true,
      "stateMutability": "payable",
      "type": "function"
    },
    {
      "constant": false,
      "inputs": [
        {
          "internalType": "uint256",
          "name": "campaignID",
          "type": "uint256"
        }
      ],
      "name": "checkGoalReached",
      "outputs": [
        {
          "internalType": "bool",
          "name": "reached",
          "type": "bool"
        }
      ],
      "payable": false,
      "stateMutability": "nonpayable",
      "type": "function"
    },
    {
      "constant": true,
      "inputs": [
        {
          "internalType": "uint256",
          "name": "campaignID",
          "type": "uint256"
        }
      ],
      "name": "getBeneficiary",
      "outputs": [
        {
          "internalType": "address",
          "name": "beneficiary",
          "type": "address"
        }
      ],
      "payable": false,
      "stateMutability": "view",
      "type": "function"
    },
    {
      "constant": true,
      "inputs": [
        {
          "internalType": "uint256",
          "name": "campaignID",
          "type": "uint256"
        }
      ],
      "name": "getCampaignAmount",
      "outputs": [
        {
          "internalType": "uint256",
          "name": "amount",
          "type": "uint256"
        }
      ],
      "payable": false,
      "stateMutability": "view",
      "type": "function"
    },
    {
      "constant": true,
      "inputs": [
        {
          "internalType": "uint256",
          "name": "campaignID",
          "type": "uint256"
        }
      ],
      "name": "getCampaign",
      "outputs": [
        {
          "internalType": "address",
          "name": "beneficiary",
          "type": "address"
        },
        {
          "internalType": "uint256",
          "name": "fundingGoal",
          "type": "uint256"
        },
        {
          "internalType": "uint256",
          "name": "numFunders",
          "type": "uint256"
        },
        {
          "internalType": "uint256",
          "name": "amount",
          "type": "uint256"
        }
      ],
      "payable": false,
      "stateMutability": "view",
      "type": "function"
    }
  ],
  "bytecode": "0x608060405234801561001057600080fd5b506109d9806100206000396000f3fe6080604052600436106100555760003560e01c8063296c10f41461005a578063302df083146100a95780635598f8cc146101245780635b2329d4146101b4578063c1cbbca714610207578063f7572cf314610235575b600080fd5b34801561006657600080fd5b506100936004803603602081101561007d57600080fd5b8101908080359060200190929190505050610290565b6040518082815260200191505060405180910390f35b3480156100b557600080fd5b506100e2600480360360208110156100cc57600080fd5b8101908080359060200190929190505050610345565b604051808273ffffffffffffffffffffffffffffffffffffffff1673ffffffffffffffffffffffffffffffffffffffff16815260200191505060405180910390f35b34801561013057600080fd5b5061015d6004803603602081101561014757600080fd5b81019080803590602001909291905050506103fa565b604051808573ffffffffffffffffffffffffffffffffffffffff1673ffffffffffffffffffffffffffffffffffffffff16815260200184815260200183815260200182815260200194505050505060405180910390f35b3480156101c057600080fd5b506101ed600480360360208110156101d757600080fd5b81019080803590602001909291905050506104ca565b604051808215151515815260200191505060405180910390f35b6102336004803603602081101561021d57600080fd5b81019080803590602001909291905050506105bd565b005b34801561024157600080fd5b5061028e6004803603604081101561025857600080fd5b81019080803573ffffffffffffffffffffffffffffffffffffffff16906020019092919080359060200190929190505050610840565b005b600061029a61095f565b600260008481526020019081526020016000206040518060a0016040529081600082015481526020016001820160009054906101000a900473ffffffffffffffffffffffffffffffffffffffff1673ffffffffffffffffffffffffffffffffffffffff1673ffffffffffffffffffffffffffffffffffffffff168152602001600282015481526020016003820154815260200160048201548152505090508060800151915050919050565b600061034f61095f565b600260008481526020019081526020016000206040518060a0016040529081600082015481526020016001820160009054906101000a900473ffffffffffffffffffffffffffffffffffffffff1673ffffffffffffffffffffffffffffffffffffffff1673ffffffffffffffffffffffffffffffffffffffff168152602001600282015481526020016003820154815260200160048201548152505090508060200151915050919050565b60008060008061040861095f565b600260008781526020019081526020016000206040518060a0016040529081600082015481526020016001820160009054906101000a900473ffffffffffffffffffffffffffffffffffffffff1673ffffffffffffffffffffffffffffffffffffffff1673ffffffffffffffffffffffffffffffffffffffff1681526020016002820154815260200160038201548152602001600482015481525050905080602001519450806040015193508060600151925080608001519150509193509193565b6000806002600084815260200190815260200160002090508060020154816004015410156104fc5760009150506105b8565b600081600401549050600082600401819055508160010160009054906101000a900473ffffffffffffffffffffffffffffffffffffffff1673ffffffffffffffffffffffffffffffffffffffff166108fc829081150290604051600060405180830381858888f19350505050158015610579573d6000803e3d6000fd5b507ffbfd8ab7c24300fa9888cd721c8565a7da56759384781283684dcf7c7c4a846b846040518082815260200191505060405180910390a16001925050505b919050565b600073ffffffffffffffffffffffffffffffffffffffff1660008083815260200190815260200160002060003373ffffffffffffffffffffffffffffffffffffffff1673ffffffffffffffffffffffffffffffffffffffff16815260200190815260200160002060000160009054906101000a900473ffffffffffffffffffffffffffffffffffffffff1673ffffffffffffffffffffffffffffffffffffffff16141561077057600060026000838152602001908152602001600020905060405180604001604052803373ffffffffffffffffffffffffffffffffffffffff1681526020013481525060008084815260200190815260200160002060003373ffffffffffffffffffffffffffffffffffffffff1673ffffffffffffffffffffffffffffffffffffffff16815260200190815260200160002060008201518160000160006101000a81548173ffffffffffffffffffffffffffffffffffffffff021916908373ffffffffffffffffffffffffffffffffffffffff1602179055506020820151816001015590505034816004016000828254019250508190555060018160030160008282540192505081905550505b60006002600083815260200190815260200160002090503460008084815260200190815260200160002060003373ffffffffffffffffffffffffffffffffffffffff1673ffffffffffffffffffffffffffffffffffffffff168152602001908152602001600020600101600082825401925050819055503481600401600082825401925050819055503373ffffffffffffffffffffffffffffffffffffffff167f26ca392be7e3d9d0c0634fbc0457971d6ddcd123b3efb5ccaa0af7c33f4225c660405160405180910390a25050565b600080905060006001600081548092919060010191905055905060008090506040518060a001604052808381526020018673ffffffffffffffffffffffffffffffffffffffff16815260200182815260200185815260200184815250600260008481526020019081526020016000206000820151816000015560208201518160010160006101000a81548173ffffffffffffffffffffffffffffffffffffffff021916908373ffffffffffffffffffffffffffffffffffffffff1602179055506040820151816002015560608201518160030155608082015181600401559050507fbc0a5edd152fa5b886dcae82c5c109d113708653b4b9c0224549ccdf715af94e826040518082815260200191505060405180910390a15050505050565b6040518060a0016040528060008152602001600073ffffffffffffffffffffffffffffffffffffffff168152602001600081526020016000815260200160008152509056fea265627a7a723158204061c55a7b252c43ca4d661baaa04ca55ab9619bc7a49ec78127846776f40a4964736f6c63430005100032",
  "source": "pragma solidity >=0.4.0 <0.9.0;\n\n// Defines a new type with two fields.\n// Declaring a struct outside of a contract allows\n// it to be shared by multiple contracts.\n// Here, this is not really needed.\n\ncontract Crowdfunding {\n    // Structs can also be defined inside contracts, which makes them\n    // visible only there and in derived contracts.\n\n    struct Funder {\n        address addr;\n        uint256 amount;\n    }\n    struct Campaign {\n        uint256 campaignID;\n        address payable beneficiary;\n        uint256 fundingGoal;\n        uint256 numFunders;\n        uint256 amount;\n    }\n\n    //uint256 numCampaignPerFunders;\n    mapping(uint256 => mapping(address => Funder)) campaignFunders;\n\n    uint256 numCampaigns;\n    mapping(uint256 => Campaign) campaigns;\n\n    event CampaignCreated(uint256 campaignID);\n\n    event Contribution(address indexed funder);\n\n    event GoalReached(uint256 campaignID);\n\n    function newCampaign(address payable beneficiary, uint256 goal) public {\n        uint256 amount = 0;\n        uint256 campaignID = numCampaigns++;\n        uint256 numFunders = 0;\n\n        campaigns[campaignID] = Campaign(\n            campaignID,\n            beneficiary,\n            numFunders,\n            goal,\n            amount\n        );\n\n        emit CampaignCreated(campaignID);\n    }\n\n    function contribute(uint256 campaignID) public payable {\n        if (campaignFunders[campaignID][msg.sender].addr == address(0)) {\n            Campaign storage c = campaigns[campaignID];\n            campaignFunders[campaignID][msg.sender] = Funder(\n                msg.sender,\n                msg.value\n            );\n            c.amount += msg.value;\n            c.numFunders += 1;\n        }\n\n        Campaign storage campaign = campaigns[campaignID];\n        campaignFunders[campaignID][msg.sender].amount += msg.value;\n        campaign.amount += msg.value;\n\n        emit Contribution(msg.sender);\n    }\n\n    function checkGoalReached(uint256 campaignID)\n        public\n        returns (bool reached)\n    {\n        Campaign storage c = campaigns[campaignID];\n        if (c.amount < c.fundingGoal) return false;\n        uint256 amount = c.amount;\n        c.amount = 0;\n        c.beneficiary.transfer(amount);\n        emit GoalReached(campaignID);\n        return true;\n    }\n\n    function getBeneficiary(uint256 campaignID)\n        public\n        view\n        returns (address beneficiary)\n    {\n        Campaign memory campaign = campaigns[campaignID];\n        beneficiary = campaign.beneficiary;\n    }\n\n    function getCampaignAmount(uint256 campaignID)\n        public\n        view\n        returns (uint256 amount)\n    {\n        Campaign memory campaign = campaigns[campaignID];\n        amount = campaign.amount;\n    }\n\n    function getCampaign(uint256 campaignID)\n        public\n        view\n        returns (address beneficiary, uint256 fundingGoal, uint256 numFunders, uint256 amount)\n    {\n        Campaign memory campaign = campaigns[campaignID];\n        beneficiary = campaign.beneficiary;\n        fundingGoal = campaign.fundingGoal;\n        numFunders = campaign.numFunders;\n        amount = campaign.amount;\n    }\n}\n",
  "sourcePath": "/home/thiagosteps227/blockchain-developer-bootcamp-final-project/contracts/Crowdfunding.sol",
  "compiler": {
    "name": "solc",
    "version": "0.5.16+commit.9c3226ce.Emscripten.clang"
  },
  "schemaVersion": "3.4.3",
  "updatedAt": "2021-11-11T22:43:07.527Z",
  "networkType": "ethereum",
  "devdoc": {
    "methods": {}
  },
  "userdoc": {
    "methods": {}
  }
}